00COFSP906ATHOSGESTÃO    24052011000002
011985986973840757401522012008                                                000000000000000                  000000000000000                                                                                                                                                                                                                                                                                                                                                                                                                                                                                                                                                                                              
018771481134941485246808032008        18072008                                000000004800000               240000000000000000                                                                                                                                                                                                                                                                                                                                                                                                                                                                                                                                                                                              
015832207250000000000001042008                                                                                                                                                                                                                                                                                                                                                                                                                                                                                                                                                                                                                                                                                              
013452065534096008060013042008                                                000000003000000               240000000000000000  C00980000ALR020301000100B                                                                                                                         RUAMonsenhor Jose Coutinho                           101                                 0138365000005175IPTU0000000101700002604200809052008HSNSNN000000010000000                                                                                                                                                                                                                                                                         
010272145167025197564914042008                                                000000006700000               180000000000000000                                                                                                                                                                                                                                                                                                                                                                                                                                                                                                                                                                                              
016737813110620780185715042008                                                000000000000000                  000000000000000                                                                                                                                                                                                                                                                                                                                                                                                                                                                                                                                                                                              
016334188232362820033418042008                                                000000005000000               120000000000000000                                                                                                                                                                                                                                                                                                                                                                                                                                                                                                                                                                                              
016605246420467775583307052008                                                000000018400000               240000000000000000                                                                                                                                                                                                                                                                                                                                                                                                                                                                                                                                                                                              
012531280700000000000013052008                                                                                                                                                                                                                                                                                                                                                                                                                                                                                                                                                                                                                                                                                              
016600459941717952119116052008        28072008                                000000005000000               240000000000000000                                                                                                                                                                                                                                                                                                                                                                                                                                                                                                                                                                                              
018273832472434984452016052008                                                000000006000000               240000000000000000                                                                                                                                                                                                                                                                                                                                                                                                                                                                                                                                                                                              
012694452194172255817216052008                                                000000000000000               240000000000000000                                                                                                                                                                                                                                                                                                                                                                                                                                                                                                                                                                                              
013146600340669604054420052008                                                000000007000000               240000000000000000                                                                                                                                                                                                                                                                                                                                                                                                                                                                                                                                                                                              
011478272171613579268721052008        11062008                                000000012000000               240000000000000000  E01100200ALR010302010101BB                                                                                                                        RUARua P - Largo da Matriz                           470   P 16-Qd P 64 - Lt 1 E-Ap.2202 0138745430001844IPTU0000000121000002605200810062008HNNSNN000000012000000                                                                                                                                                                                                                                                                         
012100651013693013055929052008                                                000000003000000               240000000000000000  E01078100ALR010302010100BB                                                                                                                        RUAMacário Cerqueira                                 0     Apto 105                      0138440800501691IPTU0000000105400000306200806062008HNNSNN000000011500000                                                                      Jucinéia da Silva Lopes                                               Jucinéia       RUAEstrela do Oriente                      145                  01384408030016917599557626  93456107587F000001
016917083210000000000030052008                                                                                                                                                                                                                                                                                                                                                                                                                                                                                                                                                                                                                                                                                              
012915097511822856930002062008                                                000000009000000               240000000000000000   00000000   000000000000                                                                                                                                                                               0                                   0000000000000000                                   HSNSNN000000011000000                                                                                                                                                                                                                                                                         
018555157092835571760005062008        14072008                                000000003500000               240000000000000000   00000000  R010101000000                                                                                                                                                                               0                                   0000000000000000                                     NSNN000000008500000                                                                                                                                                                                                                                                                         
012823054804770319959116062008                        1901201119012011        000000008000000               240000000000000000  E00584200ALR010201000000BB                                                                                                                        RUAOswaldo Sento se Cond Vila do Imbui Ed Joara      135   apto 003                      0138417203704195IPTU0000000081000001606200823062008HNNSNN000000008000000                                                                                                                                                                                                                                                                         
1028230548047703199591Luiz Claudio de Santana                                               Luiz           RUAVia Local C                             02    bl 616 F       138 4160059041957199249710  10021122    4  27990100000066879590500M230919721     brasileiro                    200637487036 12092001SSP/BA    1                                                                      desconhecido                                                          Maria Laurenca de Santana                                             35 000000000000000000000                                                                                                                                                                                                                                     
012505020350000000000019062008                                                                                                                                                                                                                                                                                                                                                                                                                                                                                                                                                                                                                                                                                              
012316853360026400774307072008        07102008                                000000008172100               240000000000000000  E01150000ALR010202010100BB                                                                                                                        AVNAlnmirante Ary Parreiras                          301   Ap. 1005                      0010242303203172IPTU0000000146000000907200811072008HNNSNN000000014500000                                                                                                                                                                                                                                                                         
1023168533600264007743Maria de Lourdes Consentino Vilela                                    Maria de LourdeRUAAmélia Naves                            62                   138 30575560577 2127113132  010063677   2  00720100000033027919687M080219591     Rio Pomba                     20M3771825   26091984SSP/MG    5                                                                      Francisco Antonio Consentino                                          Maria de Oliveira Consentino                                          75 000000000000000000000                                                                                                                                                                                                                                     
015198157280388128089807072008                                                000000004500000               180000000000000000                                                                                                                                                                                                                                                                                                                                                                                                                                                                                                                                                                                              
017285861930138532885121072008        23092008                                000000009338600               240000000000000000PRC02837900ALR020305020301R                                                                                                                         RUAAndré Andrade Macedo                              101   Parque Jatibaia               0138131040020912IPTU0000000238000002807200831072008HSNSNN000000023000000                                                                                                                                                                                                                                                                         
016301269550000000000025072008                                                                                                                                                                                                                                                                                                                                                                                                                                                                                                                                                                                                                                                                                              
013861284210000000000013082008                                                                                                                                                                                                                                                                                                                                                                                                                                                                                                                                                                                                                                                                                              
017640731420000000000014082008                                                                                                                                                                                                                                                                                                                                                                                                                                                                                                                                                                                                                                                                                              
016131431053553999233415082008                                                000000019000000               240000000000000000  C01820400ALR020302020201B                                                                                                                         RUACerejeira                                         202                                 0138591522303501IPTU0000000221400002508200827082008HSNSNN000000022000000                                                                                                                                                                                                                                                                         
017098240051959886673422082008                                                000000006900000               222000000000000000  E00600000ALR010101000601BB                                                                                                                        AVNAlberto Ramalhete Coutinho                        1312  Ap. 103 - Ed Verão            0138292160101933IPTU0000000069100000209200802092008HNNSNN000000006900000                                                                                                                                                                                                                                                                         
1070982400519598866734Jose Claudio Messias Martins                                          Jose Claudio   TRAMario Bonfati                           02    Apto 308       138 3543001837943138175560  29701       1  00880100000024637238668M030319461     Ponte Nova-MG                 20M-3.616.07030121983SSP/MG    2Diva Rodrigues de Oliveira Messias                                    José Torres Messias                                                   Maria Dorotéa Messias                                                 90 000000000000000000000                                                                                                                                                                                                                                     
011823039711276044739108092008                                                000000005004500               240000000000000000  E00841800ALR010101020100OO                                                                                                                        QDASRIA Área Especial                                02    Lt C e D -  Ap. 501           0108710706320006IPTU0000000112000001009200812092008HNNSNN000000010504500                                                                      Suelma Coelho da Silva                                                Suelma         CPOColonia Agrícola Água Clara             00    casa 33        01087109000000066199791701  30537282149F000001
012754881123595398513424092008        01102008                                000000009437100               240000000000000000  C01870000ALR020302020101R                                                                                                                         RUAJ                                                 0     R J -71 - Qd 159  A - Lt 21   0138746743401844IPTU0000000127000002709200829092008HSNSNN000000014000000                                                                                                                                                                                                                                                                         
011511052700663633583129092008                                                000000007700000               240000000000000000PRC00937700ALR010201030100B                                                                                                                         RUAAdalberto Luis do Rosário                         136                                 0156131400003546IPTU0000000103700000310200808102008HSNSNN000000010000000                                                                                                                                                                                                                                                                         
011295131712441030612015102008                                                000000031500000               240000000000000000  E01475900ALR010202010101BB                                                                                                                        RUAsqs                                               403   Ap 207 bl-f                   0018702370660006IPTU0000000428000002110200821102008HNNSNN000000042000000                                                                                                                                                                                                                                                                         
016890352110000000000020102008                                                                                                                                                                                                                                                                                                                                                                                                                                                                                                                                                                                                                                                                                              
014978522393996644515311112008                                                000000013500000               240000000000000000  E01038400ALR010202010100BO                                                                                                                        QDADUZENTOS E DOIS                                   0     AP 506 PRACA DO IRERE LOTE 5  0138719090000006IPTU0000000162000001711200818112008HNNSNN000000016000000                                                                                                                                                                                                                                                                         
019568048910000000000020112008                                                                                                                                                                                                                                                                                                                                                                                                                                                                                                                                                                                                                                                                                              
015011838120763728586328112008                                                000000005500000               180000000000000000                                                                                                                                                                                                                                                                                                                                                                                                                                                                                                                                                                                              
012815405713351346549129122008                                                000000007000000               240000000000000000  C01556000ALR010302020201R                                                                                                                         RUAMissionario Joel Carlson                          375                                 0917511702803979IPTU0000000167700000501200908012009HSNSNN000000018000000                                                                                                                                                                                                                                                                         
018988155313570989879129122008                                                000000010500000               180000000000000000  E00710000ALR010201000101BB                                                                                                                        RUASao Vicente                                       126   Ap 103                        0005202601404076IPTU0000000110000003012200806012009HNNSNN000000010500000                                                                                                                                                                                                                                                                         
015345830412561509265305012009                                                000000027000000               240000000000000000  E01835800ALR010302000101BO                                                                                                                        RUAdas Palmeiras                                     0     Ap 301 lote 5                 0138719291800006IPTU0000000294000000501200906012009HNNSNN000000027000000                                                                                                                                                                                                                                                                         
014549859409057836874905012009                                                000000012400000               240000000000000000  E00765300ALR010101011000BB                                                                                                                        AVNBrigadeiro Luiz Antonio                           3249  Ap 708, Ed Soft Apartments    0465014010014693IPTU0000000161500002705200927052009HNNSNN000000016800000                                                                                                                                                                                                                                                                         
012513064313633821473415012009                                                000000008000000               240000000000000000  E00650000ALR010201010101BB                                                                                                                        RUAAristides Lobo                                    109   bl 02, Ap 507                 0028222504504076IPTU0000000080000002107200927072009HNNSNN000000008000000                                                                                                                                                                                                                                                                         
011824128890117445762716012009                                                000000005500000               240000000000000000                                                                                                                                                                                                                                                                                                                                                                                                                                                                                                                                                                                              
013815003331531017541529012009                                                000000009000000               240000000000000000  E00946000ALR010302010100RR                                                                                                                        RUALourenco Vieira de Souza                          50    Ed Res. Girassol AP 101       0459580515702512IPTU0000000091400001002200910022009HNNSNN000000009000000                                                                                                                                                                                                                                                                         
011039766513899341457202022009                                                000000003000000               240000000000000000  C00272000ALR010101000100R                                                                                                                         RUADOZE                                              33    Setor Urbano 10,85 Cj Pq Res  0138450000005350IPTU0000000031600000602200911022009HSNSNN000000003200000                                                                                                                                                                                                                                                                         
013612931542815992639127022009                                                000000002200000               240000000000000000                                                                                                                                                                                                                                                                                                                                                                                                                                                                                                                                                                                              
019539875515567136544902032009                                                000000005200000               240000000000000000                                                                                                                                                                                                                                                                                                                                                                                                                                                                                                                                                                                              
012754806415515267850004032009                                                000000007400000               240000000000000000  E00280000ALR010101010100BB                                                                                                                        RUAGilberto Freyre                                   30    Qd H, Lt 30 - Ap 001          0138416005904195IPTU0000000081900001303200916032009HNNSNN000000008100000                                                                                                                                                                                                                                                                         
011643483611846222745322012009                                                000000006500000               240000000000000000                                                                                                                                                                                                                                                                                                                                                                                                                                                                                                                                                                                              
016121252431513832387324032009                                                000000015000000               240000000000000000                                                                                                                                                                                                                                                                                                                                                                                                                                                                                                                                                                                              
011523458014330760460030032009                                                000000000000000                  000000000000000IME00968300ALR010101000000BB                                                                                                                        RUA18 de julho, Ed. Eliazar Martins Costa            583   ap. 201                       0687311602300577IPTU00000002800000010012011        HNNSNN000000000000000                                                                                                                                                                                                                                                                         
017901610310014500388407042009                                                000000005000000               224000000000000000PRE00771500ALR010102010401BB                                                                                                                        ESTAlexandre Migues Rodrigues                        650   ap 150, Bl B, Ed Park´s Garden0138114201201946IPTU0000000066400001704200927042009HNNSNN000000005000000                                                                                                                                                                                                                                                                         
013604108813106155914907042009                                                000000007500000               240000000000000000  E00480000ALR010201001200BB                                                                                                                        ESTdos Bandeirantes                                  8325  ap 504, Bl 7                  0911227831154076IPTU0000000074000000704200917042009HNNSNN000000007500000                                                                                                                                                                                                                                                                         
016943294715821121744915042009                                                000000010000000               240000000000000000PRC01591500ALR020403010101B                                                                                                                         AVNIzidro Gomes                                      407                                 0138580391602512IPTU0000000252200002304200927042009HSNSNN000000030000000                                                                                                                                                                                                                                                                         
019494963221062737520017042009                                                000000010000000               240000000000000000PRE00210000ALR010101001300BR                                                                                                                        PRAPraia do Botafogo                                 354   356/ Ap 425                   0004222500404076IPTU0000000100000001105200913052009HNNSNN000000010000000                                                                                                                                                                                                                                                                         
018845366017286625063020042009                                                000000026000000               240000000000000000PR                                                                                                                                                                                                                                                                                                                                                                                                                                                                                                                                                                                            
012213355613358579298722042009                                                000000013300000               240000000000000000  C02600000ALR030403020200R                                                                                                                         RUAJoao Alencar Guimaraes                            960   casa                          0138803104201445IPTU0000000182100002704200929042009HSNSNN000000018000000                                                                                                                                                                                                                                                                         
017691333611691743283023042009                                                000000034500000               240000000000000000PRE03108500ALR030305031801OO                                                                                                                        RUADomingos Lopes da Silva                           650   Ap 121                        0241056410304693IPTU0000000555800003004200904052009HNNSNN000000049000000                                                                                                                                                                                                                                                                         
015123763513071201702027042009                                                000000009800000               240000000000000000PRE00722200ALR010201010100BB                                                                                                                        RUAComissario Bergmann                               107   Ap 104, Vaga 90               0138911206023819IPTU0000000098600000506200909062009HNNSNN000000009800000                                                                                                                                                                                                                                                                         
016705774710366820745304052009                                                000000006500000               240000000000000000  E00911500ALR020201010100BB                                                                                                                        RUABom Pastor                                        1635  204, Bl 10, Edif Jawa         0138506702603979IPTU0000000065600000505200906052009HNNSNN000000006500000                                                                                                                                                                                                                                                                         
010021974710454722982115052009                                                000000008800000               240000000000000000  E01127300ALR010201010800BB                                                                                                                        AVNCassiano Ricardo                                  681   Ap 74                         0138122409024601IPTU0000000120200002205200901062009HNNSNN000000012000000                                                                                                                                                                                                                                                                         
017698416213671173017829052009                                                000000013000000               240000000000000000  C02090000ALR020302020101R                                                                                                                         RUAGuatemala                                         462                                 0138510202404639IPTU0000000207400000506200908062009HSNSNN000000020000000                                                                                                                                                                                                                                                                         
018613629415479708074404062009                                                000000012500000               140000000000000000  C02560000ALR020403000301B                                                                                                                         TRAAlfredo Botelho                                   52                                  0070207202004076IPTU0000000252000000806200910062009HSNSNN000000020000000                                                                                                                                                                                                                                                                         
012652351022693735688922062009                                                000000000000000               240000000000000000IM 00000000   000000000000                                                                                                                                                                               0                                   0000000000000000                                     NSNN000000000000000                                                                                                                                                                                                                                                                         
018915535111758463961522062009                                                000000006000000               240000000000000000  C01260000ALR010207040101B                                                                                                                         RUADoutor Leopoldo Correa                            16                                  0138355500002276IPTU0000000109000001108200921082009HSNSNN000000010000000                                                                                                                                                                                                                                                                         
017519017112059590574922062009                                                000000010655200               231000000000000000  E00290000ALR010001000100BB                                                                                                                        RUASiqueira Campos                                   143   Bl E, ap 932                  0025220310704076IPTU0000000120000000307200908072009HNNSNN000000011900000                                                                                                                                                                                                                                                                         
019192085216781340247230062009                                                000000009000000               240000000000000000  C02800000ALR020404030201B                                                                                                                         RUAAmaurilio Lobo Sales                              0     Lt 09, Qd B                   0138579350003503IPTU0000000098400000607200916072009HSNSNN000000009000000                                                                                                                                                                                                                                                                         
019954143314364429597201072009                                                000000010000000               240000000000000000  E02137800ALR010304020101OO                                                                                                                        RUATrinta e um Norte                                 0     lt 03, Ap 1501                0138719183600006IPTU0000000395000002307200924072009HNNSNN000000039500000                                                                                                                                                                                                                                                                         
011376809822693960886903072009                                                000000000000000               240000000000000000IM 00000000   000000000000                                                                                                                                                                               0                                   0000000000000000                                     NSNN000000000000000                                                                                                                                                                                                                                                                         
013421656814645679193714072009                                                000000024000000               240000000000000000                                                                                                                                                                                                                                                                                                                                                                                                                                                                                                                                                                                              
013927497111314320440014072009                                                000000009700000               120000000000000000PRE00819100ALR010201011500BB                                                                                                                        AVNPresidente Afonso Pena                            214   Ap 303, Ed Res Guaratuba      0138580350302512IPTU0000000097600002007200923072009HNNSNN000000009700000                                                                                                                                                                                                                                                                         
014309665611191811387408092009                                                000000031800000               240000000000000000PRE02800300ALR010404030101OO                                                                                                                        RUAVinte e oito  Norte                               0     Ap 1902                       0138719177200006IPTU0000000500000001509200917092009HNNSNN000000045600000                                                                                                                                                                                                                                                                         
017603214812752685203408092009                                                000000023400000               240000000000000000PRC00960000ALR010302010100B                                                                                                                         RUAdos Cravos                                        286   esq. Av. das Acácias          0138880530601734IPTU0000000263000001409200916092009HSNSNN000000026000000                                                                                                                                                                                                                                                                         
015704478018446502674909092009                                                000000020000000               240000000000000000  E00630000ALR010201000101BB                                                                                                                        RUAGeneral Urquiza                                   67    Ap 211                        0026224310404076IPTU0000000499000001009200914092009HNNSNN000000050000000                                                                                                                                                                                                                                                                         
018034456612124224042011092009                                                000000016000000               240000000000000000  E01650527ALR020302020101BB                                                                                                                        PCAMarcelino Champagnat                              90    1002, Edf. Saint Marcel       0546520502513979IPTU0000000250000001409200916092009HNNSNN000000027000000                                                                      Luiza Antonieta Alencar Ferreira Nascimento                           Luiza          RUASão Salvador                            105   ap 202         01385202020039798188674072  22672737487F000001
019881723110936397110428092009                                                000000019500000               240000000000000000  E02544200ALR010203000200RR                                                                                                                        QDASHS                                               2     QD 02, BLOCO J                0018703229010006IPTU0000000305000000610200909102009HNNSNN000000020000000                                                                                                                                                                                                                                                                         
012615556515595708018728092009                                                000000020000000               240000000000000000                                                                                                                                                                                                                                                                                                                                                                                                                                                                                                                                                                                              
019565498410000000000022102009                                                                                                                                                                                                                                                                                                                                                                                                                                                                                                                                                                                                                                                                                              
018296483916265767470406112009                        2804201003052010        000000028500000               240000000000000000  E01010600ALR010302010101BB                                                                                                                        QDASQN                                               115   Ap.505-BLC.H                  0019707720600006IPTU0000000629000000611200930112009HNNSNN000000063500000                                                                                                                                                                                                                                                                         
1082964839162657674704Marcos de Oliveira Pereira                                            Marcos         QDASQN                                     115   apto 104 bl F  19  707720606   6181481100  41859       5  16060100000011977640893M180319721     brasileiro                    2612882      30112004OAB/DF    2Karla Mavie Moreira Luz                                               Manoel dos Santos Pereira                                             Rosa Olga de Oliveira Pereira                                         3  000000000000000000000                                                                                                                                                                                                                                     
013898878210705939600410112009                                                000000025000000               198000000000000000  E01498300ALR010302010101BB                                                                                                                        QDAQI 31 lote 11                                     0     ap.312                        0926710653100006IPTU0000000300000001711200917112009HNNSNN000000030000000                                                                                                                                                                                                                                                                         
013020590010750492686810112009                                                000000036000000               095000000000000000                                                                                                                                                                                                                                                                                                                                                                                                                                                                                                                                                                                              
010537539410295660821512112009                                                000000013000000               240000000000000000                                                                                                                                                                                                                                                                                                                                                                                                                                                                                                                                                                                              
018064830461397083697224112009                                                000000000000000                  000000000000000                                                                                                                                                                                                                                                                                                                                                                                                                                                                                                                                                                                              
017211927713526159513426112009                                                000000010000000               240000000000000000  E02307400ALR010303020100BB                                                                                                                        RUARodney Mady(Antiga R: 05)                         07    Q13                           0138780280001433IPTU0000000137000003011200903122009HNNSNN000000010000000                                                                                                                                                                                                                                                                         
016607744014212178761526112009                                                000000015500000               240000000000000000  E01700000ALR010302010101RR                                                                                                                        QDAQSF                                               15    Casa 305                      0138720256500006IPTU0000000248000003011200907122009HNNSNN000000025000000                                                                                                                                                                                                                                                                         
017006209210714468738702122009                                                000000013030000               240000000001301500  E01002600ALR010302020100BB                                                                                                                        RUAIpê-Cond.Vale dos Ipês                            205   Apto-501-Bloco-B              0138603200401751IPTU0000000130300000712200917122009HNNSNN000000014965500                                                                                                                                                                                                                                                                         
013966234213663767086302122009                                                000000033000000               240000000000000000                                                                                                                                                                                                                                                                                                                                                                                                                                                                                                                                                                                              
016180631110000000000015122009                                                                                                                                                                                                                                                                                                                                                                                                                                                                                                                                                                                                                                                                                              
012328962211682498913416122009                                                000000012500000               240000000000000000                                                                                                                                                                                                                                                                                                                                                                                                                                                                                                                                                                                              
017168934819454979671521122009                        1609201024092010        000000006439619               240000000000000000  E00650000ALR010202010100OO                                                                                                                        RUAFlorianópolis                                     1450  Apto. 506 - BL. 2             0027213210504076IPTU0000000153000002605201001062010HNNSNN000000016046060                                                                                                                                                                                                                                                                         
2071689348194549796715Banco Bradesco S/A                                                    Bradesco       RUAdo Ouvidor                              71    sobre loja     138 2004004033532125316225  60746948000112000000006439619
012720926312560398150421122009                                                000000013800000               240000000000000000  E02084900ALR010302010101BB                                                                      11520                                             RUALagarto - Condominio Mares da Grecia              1018  Apt 803                       0138490103900290IPTU0000000139400002112200911012010HNNSNN000000013800000                                                                                                                                                                                                                                                                         
016912313812871851840022122009                                                000000003500000               112000000000000000  C00720000AL 010302000001R                                                                       1444                                              RUASão Paulo                                         54                                  0138483300004095IPTU0000000040600001901201006022010HSNSNN000000003500000                                                                                                                                                                                                                                                                         
014874123511173898751506012010                        2804201029042010        000000007108232               240000000002000000  E01073200ALR010201020801OB                                                                                                                        RUAAndré Gonçalves - Residencial Santiago            103   apto 504/vagas 07e07A         0138417410204195IPTU0000000149000001002201026042010HSNSNN000000014601579                                                                                                                                                                                                                                                                         
019270461310000000000007012010                                                                                                                                                                                                                                                                                                                                                                                                                                                                                                                                                                                                                                                                                              
019381793011269641271507012010                                                000000007500000               240000000000000000                                                                                                                                                                                                                                                                                                                                                                                                                                                                                                                                                                                              
019116548110479904626811012010                                                000000003000000               240000000000000000PP                                                                                                                                                                                                                                                                                                                                                                                                                                                                                                                                                                                            
014338989620000000000011012010                                                                                                                                                                                                                                                                                                                                                                                                                                                                                                                                                                                                                                                                                              
019251414211214930581013012010                                                000000007100746               240000000000000000                                                                                                                                                                                                                                                                                                                                                                                                                                                                                                                                                                                              
019364239611940932068215012010                                                000000016690000               240000000000000000                                                                                                                                                                                                                                                                                                                                                                                                                                                                                                                                                                                              
018378375514574170042028012010                                                000000001500000               240000000000000000  E01050267ALR010303010101BB                                                                      64624                                             AVNSantos Dumont                                     508   Ap-1802                       0138520500503979IPTU0000000175900000202201020022010HNNSNN000000017500000                                                                                                                                                                                                                                                                         
012488017512249061254904022010                                                000000013000000               240000000000000000                                                                                                                                                                                                                                                                                                                                                                                                                                                                                                                                                                                              
015032215711559468831504022010                                                000000014522700               240000000000000000                                                                                                                                                                                                                                                                                                                                                                                                                                                                                                                                                                                              
012571103311684391660011022010                                                000000018000000               240000000000000000                                                                                                                                                                                                                                                                                                                                                                                                                                                                                                                                                                                              
014334371616705945745317022010                                                000000003200000               240000000000000000  E00764100ALR010202010100BB                                                                      54773                                             AVNFernando Simões Barbosa                           1222  Ed.Boa Viagem                 0206510210603979IPTU0000000150800000104201012042010HNNSNN000000013200000                                                                                                                                                                                                                                                                         
015959520816050564868717022010                                                000000029000000               240000000000000000                                                                                                                                                                                                                                                                                                                                                                                                                                                                                                                                                                                              
016663566317856490578719022010                                                000000006500000               240000000000000000  E00877700ALR010302010100BB                                                                      65572                                             RUACurupaiti                                         1377  Ap.101                        0138307301300577IPTU0000000190000002002201025022010HNNSNN000000018000000                                                                                                                                                                                                                                                                         
013256622911380458803423022010                                                000000017600000                  000000000000000                                                                                                                                                                                                                                                                                                                                                                                                                                                                                                                                                                                              
015103496710230371027823022010                                                000000020000000               225000000000000000                                                                                                                                                                                                                                                                                                                                                                                                                                                                                                                                                                                              
013718525217375223181524022010                                                000000012000000               240000000000000000                                                                                                                                                                                                                                                                                                                                                                                                                                                                                                                                                                                              
011602427813235029508726022010                                                000000011500000               240000000000000000                                                                                                                                                                                                                                                                                                                                                                                                                                                                                                                                                                                              
010156661517817485682005032010                        0111201005112010        000000011746700               240000000000000000  C00934500ALR010404020200B                                                                                                                         ESTdo Vassoroca                                      481   avenida Adolfo Massaglia      0138180525724925IPTU0000000183300002503201001112010HSNSNN000000018709050                                                                                                                                                                                                                                                                         
018804207910327734876809032010                                        23112010000000023000000               172000000001500000  E00650000ALR010202010101BB10º Ofícial de Registro de Imóveis do Rio de Janeiro - RJ             32561     2         2,2v      18        19        RUATeodoro da Silva                                  750   Ap.105                        0852205600014076IPTU0000000230000000903201022032010HNNSNN000000023000000                                                                                                                                                                                                                                                                         
014731361111634818458710032010                                                000000013500000               240000000000000000PPE00809800ALR010202010101BB                                                                      18475                                             AVNAmaralina-Ed.Bahamas                              193   Ap.104                        0138419000204195IPTU0000000137200001803201022032010HNNSNN000000013500000                                                                                                                                                                                                                                                                         
018910229113808365579111032010                                                000000000000000                  000000000000000                                                                                                                                                                                                                                                                                                                                                                                                                                                                                                                                                                                              
014855429410626125642016032010                        1308201013082010        000000015000000               240000000000000000  C01189600AL 010303010200B                                                                                                                         RUALeonardo Castelo Branco-Res.Algarve               1400  Casa 05                       0138640569065032IPTU0000000250500002303201029032010HSNSNN000000025000000                                                                                                                                                                                                                                                                         
1048554294106261256420Lonne Ribeiro Araujo                                                  Lonne          RUAVI LTM Kennedy Park Bairro Zoobotânico  4560  casa 78        138 6406200550328699816395  28880       2  31780100000000660446340F080819841     Brasileira                    202.203.564  26092008SSP/PI    2Francisco José Alves da Silva                                         Maria do Amparo Ribeiro Araujo                                        Natan Cavalcante de Araujo                                            35 000000000000000000000                                                                                                                                                                                                                                     
013580788916874607545316032010                                                000000007000000               240000000000000000                                                                                                                                                                                                                                                                                                                                                                                                                                                                                                                                                                                              
010989942012268178730017032010                                                000000012500000               240000000000000000  C01425000ALR020202010101B                                                                                                                         RUAAssis Veloso                                      4161                                0138640553605032IPTU0000000126000002604201030042010HSNSNN000000012500000                                                                                                                                                                                                                                                                         
010341145919930405887205042010                                                000000000000000                  000000000000000                                                                                                                                                                                                                                                                                                                                                                                                                                                                                                                                                                                              
015817761515999196876813042010                        1301201126012011        000000020433500               240000000000000000  E00770000ALR010201000101BB                                                                                                                        RUADas Laranjeiras                                   103   Apto 506                      0002222400004076IPTU0000000305000001904201022042010HNNSNN000000030000000                                                                                                                                                                                                                                                                         
1058177615159991968768Luiz Carlos Carvalho Batista                                          Luiz           RUALaranjeiras                             103   apto 506       2   2224000040765198243277  23989       5  04240100000018538916068M290219441     brasileiro                    268411 D     17081978CREA/RS   3                                                                      Landoaldo Santos Batista                                              Maria Filomena Carvalho Batista                                       35 000000000000000000000                                                                                                                                                                                                                                     
018650385410055461840013042010                                                000000020000000               130000000000000000  E01160900ALR010101010100BB                                                                                                                        RUARodrigues Dorea-Cond.Palazzo Linda                725   Ap.402                        0138417500004195IPTU0000000200400002904201005052010HNNSNN000000020000000                                                                                                                                                                                                                                                                         
013680771611403106002513042010                                                000000018000000               240000000000000000                                                                                                                                                                                                                                                                                                                                                                                                                                                                                                                                                                                              
018084202210031505236813042010                                                000000020000000               130000000000000000  E01714700ALR010202020101RR                                                                                                                        AVNSenador Virgilio Távora-Ed Victor VIII            99    Ap.302                        0488601702501751IPTU0000000301800002904201005052010HNNSNN000000020000000                                                                                                                                                                                                                                                                         
012058674715813355006815042010                                                000000000000000                  000000000000000                                                                                                                                                                                                                                                                                                                                                                                                                                                                                                                                                                                              
010196953015394284172015042010                        0410201004102010        000000015002000               240000000000000000  E00666200ALR010202010100OO                                                                                                                        AVNDi Cavalcanti                                     25    Ap.403-Blc.02                 0003227933204076IPTU0000000280000002604201030042010HNNSNN000000027000000                                                                                                                                                                                                                                                                         
1001969530153942841720Prunus Empreendimentos S/A                                            Prunus         AVNMajor Sylvio de Magalhães Padilha Bl C  5200  Conj 32 C 25   90  0569300046932132143055  35825       8  186901000000                                                                                                                                                                                                                                                                                                                                             08036587000109NNN9239  Mauro Alves Pereira                                                   Mauro          AVNMajor Sylvio de Magalhães Padilha Bl C  5200  Conj 32 C 25   90  0569300046932132143055  49217984787M1     
019015486913697654772015042010                                                000000009298000               240000000000000000                                                                                                                                                                                                                                                                                                                                                                                                                                                                                                                                                                                              
1090154869136976547720Prunus Empreendimentos S/A                                            Prunus         AVNMajor Sylvio de Magalhães Padilha Bl C  5200  Conj 32 C 25   90  0569300046932132143055  35825       8  186901000000                                                                                                                                                                                                                                                                                                                                             08036587000109NNN9239  Mauro Alves Pereira                                                   Mauro          AVNMajor Sylvio de Magalhães Padilha Bl C  5200  Conj 32 C 25   90  0569300046932132143055  49217984787M1     
010755750314139608188716042010                                        22112010000000027036033               240000000010059415  E01147200ALR010202010100OO10º Oficial de Registro de Imóveis de São Paulo/SP                    123887    2         1v,2      4         5         RUAJoaquim Ferreira-Torre Mirante-                   55    Ap.127-Bl.B                   0236050330804693IPTU0000000276000002604201020072010HNNSNN000000027036033                                                                                                                                                                                                                                                                         
2007557503141396081887BANCO ABN AMRO REAL SA                                                REAL           AVNPaulista                                1374                 138 0000000046931156359299  33066408000115000000010666900
019226955013204933105319042010                                                000000000000000                  000000000000000                                                                                                                                                                                                                                                                                                                                                                                                                                                                                                                                                                                              
011563168517680625182028042010                                                000000017083300               240000000000000000                                                                                                                                                                                                                                                                                                                                                                                                                                                                                                                                                                                              
011975410611982676183430042010                                                000000012400000               240000000000000000  C01276000ALR010201010100B                                                                                                                         ESTMunicipal da Capela da Grama                      0     poste 5901                    0138181300004693IPTU0000000134400001205201006092010HSNSNN000000015000000                                                                                                                                                                                                                                                                         
017985480615635500943406052010                                                000000007500000               240000000000000000  E01032100ALR010202010100BB                                                                                                                        RUAPrefeito Abdon Arroxelas-Ed. Gregory              305   Ap.701                        0138570353802745IPTU0000000093300003105201004062010HNNSNN000000007500000                                                                                                                                                                                                                                                                         
012184603810452729173407052010                                                000000035000000               123000000000000000  E02835600ALR010404020101OO                                                                                                                        RUASQN                                               116   Apto. 503 - BL. B             0019707730000006IPTU0000001234000002605201001062010HNNSNN000000117761751                                                                                                                                                                                                                                                                         
015913446414429019550407052010                        2910201005112010        000000006740307               240000000001000000  E01292200ALR010302010101OO                                                                                                                        AVNAdelia Franco-Ed.Alto dos Jardins-Cond.Alta Vista 3494  Ap.101                        0138490480100290IPTU0000000187400000707201012072010HNNSNN000000011200000                                                                                                                                                                                                                                                                         
2059134464144290195504Itaú Unibanco S.A                                                     Itaú/Unibanco  PCAAlfredo Egydio de Souza Aranha          100   Torre Olavo Set448 0000000046930000000000  60701190000104000000005740307
016893585215353562674910052010                                                000000023500000               240000000000000000  E01010000ALR010202010101OO                                                                      193841                                            RUAPrefeito Dulcidio Cardoso                         2848  ap 302                        0003226310524076IPTU0000000530000001405201025052010HNNSNN000000048000000                                                                                                                                                                                                                                                                         
